{
  "contractName": "CrowdSale",
  "abi": [
    {
      "inputs": [
        {
          "internalType": "uint256",
          "name": "rate",
          "type": "uint256"
        },
        {
          "internalType": "contract IERC20",
          "name": "token",
          "type": "address"
        }
      ],
      "stateMutability": "nonpayable",
      "type": "constructor"
    },
    {
      "anonymous": false,
      "inputs": [
        {
          "indexed": true,
          "internalType": "address",
          "name": "previousOwner",
          "type": "address"
        },
        {
          "indexed": true,
          "internalType": "address",
          "name": "newOwner",
          "type": "address"
        }
      ],
      "name": "OwnershipTransferred",
      "type": "event"
    },
    {
      "inputs": [],
      "name": "owner",
      "outputs": [
        {
          "internalType": "address",
          "name": "",
          "type": "address"
        }
      ],
      "stateMutability": "view",
      "type": "function"
    },
    {
      "inputs": [],
      "name": "renounceOwnership",
      "outputs": [],
      "stateMutability": "nonpayable",
      "type": "function"
    },
    {
      "inputs": [
        {
          "internalType": "address",
          "name": "newOwner",
          "type": "address"
        }
      ],
      "name": "transferOwnership",
      "outputs": [],
      "stateMutability": "nonpayable",
      "type": "function"
    },
    {
      "stateMutability": "payable",
      "type": "receive"
    },
    {
      "inputs": [],
      "name": "buyTokens",
      "outputs": [],
      "stateMutability": "payable",
      "type": "function"
    },
    {
      "inputs": [
        {
          "internalType": "uint256",
          "name": "rate",
          "type": "uint256"
        }
      ],
      "name": "changeRate",
      "outputs": [],
      "stateMutability": "nonpayable",
      "type": "function"
    }
  ],
  "bytecode": "0x60806040523480156200001157600080fd5b5060405162000c5d38038062000c5d83398181016040528101906200003791906200025a565b620000576200004b6200016060201b60201c565b6200016860201b60201c565b600082116200009d576040517f08c379a0000000000000000000000000000000000000000000000000000000008152600401620000949062000367565b60405180910390fd5b600073ffffffffffffffffffffffffffffffffffffffff168173ffffffffffffffffffffffffffffffffffffffff16141562000110576040517f08c379a0000000000000000000000000000000000000000000000000000000008152600401620001079062000345565b60405180910390fd5b8160038190555080600160006101000a81548173ffffffffffffffffffffffffffffffffffffffff021916908373ffffffffffffffffffffffffffffffffffffffff160217905550505062000420565b600033905090565b60008060009054906101000a900473ffffffffffffffffffffffffffffffffffffffff169050816000806101000a81548173ffffffffffffffffffffffffffffffffffffffff021916908373ffffffffffffffffffffffffffffffffffffffff1602179055508173ffffffffffffffffffffffffffffffffffffffff168173ffffffffffffffffffffffffffffffffffffffff167f8be0079c531659141344cd1fd0a4f28419497f9722a3daafe3b4186f6b6457e060405160405180910390a35050565b6000815190506200023d81620003ec565b92915050565b600081519050620002548162000406565b92915050565b600080604083850312156200026e57600080fd5b60006200027e8582860162000243565b925050602062000291858286016200022c565b9150509250929050565b6000620002aa60248362000389565b91507f43726f776473616c653a20746f6b656e20697320746865207a65726f2061646460008301527f72657373000000000000000000000000000000000000000000000000000000006020830152604082019050919050565b60006200031260148362000389565b91507f43726f776473616c653a207261746520697320300000000000000000000000006000830152602082019050919050565b6000602082019050818103600083015262000360816200029b565b9050919050565b60006020820190508181036000830152620003828162000303565b9050919050565b600082825260208201905092915050565b6000620003a782620003c2565b9050919050565b6000620003bb826200039a565b9050919050565b600073ffffffffffffffffffffffffffffffffffffffff82169050919050565b6000819050919050565b620003f781620003ae565b81146200040357600080fd5b50565b6200041181620003e2565b81146200041d57600080fd5b50565b61082d80620004306000396000f3fe60806040526004361061004e5760003560e01c8063715018a61461006257806374e7493b146100795780638da5cb5b146100a2578063d0febe4c146100cd578063f2fde38b146100d75761005d565b3661005d5761005b610100565b005b600080fd5b34801561006e57600080fd5b506100776101d3565b005b34801561008557600080fd5b506100a0600480360381019061009b919061055f565b61025b565b005b3480156100ae57600080fd5b506100b76102e1565b6040516100c4919061064c565b60405180910390f35b6100d5610100565b005b3480156100e357600080fd5b506100fe60048036038101906100f9919061050d565b61030a565b005b6000349050600160009054906101000a900473ffffffffffffffffffffffffffffffffffffffff1673ffffffffffffffffffffffffffffffffffffffff1663a9059cbb33600354620f42408561015691906106e1565b61016091906106e1565b6040518363ffffffff1660e01b815260040161017d929190610667565b602060405180830381600087803b15801561019757600080fd5b505af11580156101ab573d6000803e3d6000fd5b505050506040513d601f19601f820116820180604052508101906101cf9190610536565b5050565b6101db610402565b73ffffffffffffffffffffffffffffffffffffffff166101f96102e1565b73ffffffffffffffffffffffffffffffffffffffff161461024f576040517f08c379a0000000000000000000000000000000000000000000000000000000008152600401610246906106b0565b60405180910390fd5b610259600061040a565b565b610263610402565b73ffffffffffffffffffffffffffffffffffffffff166102816102e1565b73ffffffffffffffffffffffffffffffffffffffff16146102d7576040517f08c379a00000000000000000000000000000000000000000000000000000000081526004016102ce906106b0565b60405180910390fd5b8060038190555050565b60008060009054906101000a900473ffffffffffffffffffffffffffffffffffffffff16905090565b610312610402565b73ffffffffffffffffffffffffffffffffffffffff166103306102e1565b73ffffffffffffffffffffffffffffffffffffffff1614610386576040517f08c379a000000000000000000000000000000000000000000000000000000000815260040161037d906106b0565b60405180910390fd5b600073ffffffffffffffffffffffffffffffffffffffff168173ffffffffffffffffffffffffffffffffffffffff1614156103f6576040517f08c379a00000000000000000000000000000000000000000000000000000000081526004016103ed90610690565b60405180910390fd5b6103ff8161040a565b50565b600033905090565b60008060009054906101000a900473ffffffffffffffffffffffffffffffffffffffff169050816000806101000a81548173ffffffffffffffffffffffffffffffffffffffff021916908373ffffffffffffffffffffffffffffffffffffffff1602179055508173ffffffffffffffffffffffffffffffffffffffff168173ffffffffffffffffffffffffffffffffffffffff167f8be0079c531659141344cd1fd0a4f28419497f9722a3daafe3b4186f6b6457e060405160405180910390a35050565b6000813590506104dd816107b2565b92915050565b6000815190506104f2816107c9565b92915050565b600081359050610507816107e0565b92915050565b60006020828403121561051f57600080fd5b600061052d848285016104ce565b91505092915050565b60006020828403121561054857600080fd5b6000610556848285016104e3565b91505092915050565b60006020828403121561057157600080fd5b600061057f848285016104f8565b91505092915050565b6105918161073b565b82525050565b60006105a46026836106d0565b91507f4f776e61626c653a206e6577206f776e657220697320746865207a65726f206160008301527f64647265737300000000000000000000000000000000000000000000000000006020830152604082019050919050565b600061060a6020836106d0565b91507f4f776e61626c653a2063616c6c6572206973206e6f7420746865206f776e65726000830152602082019050919050565b61064681610779565b82525050565b60006020820190506106616000830184610588565b92915050565b600060408201905061067c6000830185610588565b610689602083018461063d565b9392505050565b600060208201905081810360008301526106a981610597565b9050919050565b600060208201905081810360008301526106c9816105fd565b9050919050565b600082825260208201905092915050565b60006106ec82610779565b91506106f783610779565b9250817fffffffffffffffffffffffffffffffffffffffffffffffffffffffffffffffff04831182151516156107305761072f610783565b5b828202905092915050565b600061074682610759565b9050919050565b60008115159050919050565b600073ffffffffffffffffffffffffffffffffffffffff82169050919050565b6000819050919050565b7f4e487b7100000000000000000000000000000000000000000000000000000000600052601160045260246000fd5b6107bb8161073b565b81146107c657600080fd5b50565b6107d28161074d565b81146107dd57600080fd5b50565b6107e981610779565b81146107f457600080fd5b5056fea2646970667358221220d38101d0ea174579d4edf615720960baddbae4c621b3e0808b82b80474c5e27064736f6c63430008000033",
  "immutableReferences": {},
  "source": "pragma solidity ^0.8.0;\r\n\r\nimport \"@openzeppelin/contracts/token/ERC20/ERC20.sol\";\r\nimport \"@openzeppelin/contracts/utils/math/SafeMath.sol\";\r\nimport \"@openzeppelin/contracts/token/ERC20/utils/SafeERC20.sol\";\r\nimport \"./ERC20/IBEP20.sol\";\r\nimport \"@openzeppelin/contracts/access/Ownable.sol\";\r\n\r\ncontract CrowdSale is Ownable {\r\n\r\n    using SafeMath for uint256;\r\n    using SafeERC20 for IERC20;\r\n\r\n    // The token being sold\r\n    IERC20 private _token;\r\n\r\n    // Address where funds are collected\r\n    address payable private _wallet;\r\n\r\n    // How many token units a buyer gets per wei.\r\n    // The rate is the conversion between wei and the smallest and indivisible token unit.\r\n    // So, if you are using a rate of 1 with a ERC20Detailed token with 3 decimals called TOK\r\n    // 1 wei will give you 1 unit, or 0.001 TOK.\r\n    uint256 private _rate;\r\n\r\n    // Amount of wei raised\r\n    uint256 private _weiRaised;\r\n\r\n\r\n    constructor (uint256 rate, IERC20 token) public {\r\n        require(rate > 0, \"Crowdsale: rate is 0\");\r\n        require(address(token) != address(0), \"Crowdsale: token is the zero address\");\r\n\r\n        _rate = rate;\r\n        _token = token;\r\n    }\r\n\r\n    receive() external payable {\r\n        buyTokens();\r\n    }\r\n\r\n    function buyTokens() public payable {\r\n        uint256 amountTobuy = msg.value;\r\n\r\n        _token.transfer(msg.sender, amountTobuy * 1000000 * _rate);\r\n    }\r\n\r\n    function changeRate(uint256 rate) public onlyOwner {\r\n        _rate = rate;\r\n    }\r\n}",
  "sourcePath": "C:\\MyProject\\SmartContract\\HOL\\contracts\\CrowdSale.sol",
  "compiler": {
    "name": "solc",
    "version": "0.8.0+commit.c7dfd78e.Emscripten.clang"
  },
  "schemaVersion": "3.4.3",
  "updatedAt": "2021-12-21T11:44:25.487Z",
  "devdoc": {
    "kind": "dev",
    "methods": {
      "owner()": {
        "details": "Returns the address of the current owner."
      },
      "renounceOwnership()": {
        "details": "Leaves the contract without owner. It will not be possible to call `onlyOwner` functions anymore. Can only be called by the current owner. NOTE: Renouncing ownership will leave the contract without an owner, thereby removing any functionality that is only available to the owner."
      },
      "transferOwnership(address)": {
        "details": "Transfers ownership of the contract to a new account (`newOwner`). Can only be called by the current owner."
      }
    },
    "version": 1
  },
  "userdoc": {
    "kind": "user",
    "methods": {},
    "version": 1
  }
}