{
  "contractName": "HOLToken",
  "abi": [
    {
      "inputs": [],
      "stateMutability": "nonpayable",
      "type": "constructor"
    },
    {
      "anonymous": false,
      "inputs": [
        {
          "indexed": true,
          "internalType": "address",
          "name": "owner",
          "type": "address"
        },
        {
          "indexed": true,
          "internalType": "address",
          "name": "spender",
          "type": "address"
        },
        {
          "indexed": false,
          "internalType": "uint256",
          "name": "value",
          "type": "uint256"
        }
      ],
      "name": "Approval",
      "type": "event"
    },
    {
      "anonymous": false,
      "inputs": [
        {
          "indexed": true,
          "internalType": "address",
          "name": "previousOwner",
          "type": "address"
        },
        {
          "indexed": true,
          "internalType": "address",
          "name": "newOwner",
          "type": "address"
        }
      ],
      "name": "OwnershipTransferred",
      "type": "event"
    },
    {
      "anonymous": false,
      "inputs": [
        {
          "indexed": false,
          "internalType": "address",
          "name": "account",
          "type": "address"
        }
      ],
      "name": "Paused",
      "type": "event"
    },
    {
      "anonymous": false,
      "inputs": [
        {
          "indexed": false,
          "internalType": "uint256",
          "name": "id",
          "type": "uint256"
        }
      ],
      "name": "Snapshot",
      "type": "event"
    },
    {
      "anonymous": false,
      "inputs": [
        {
          "indexed": true,
          "internalType": "address",
          "name": "from",
          "type": "address"
        },
        {
          "indexed": true,
          "internalType": "address",
          "name": "to",
          "type": "address"
        },
        {
          "indexed": false,
          "internalType": "uint256",
          "name": "value",
          "type": "uint256"
        }
      ],
      "name": "Transfer",
      "type": "event"
    },
    {
      "anonymous": false,
      "inputs": [
        {
          "indexed": false,
          "internalType": "address",
          "name": "account",
          "type": "address"
        }
      ],
      "name": "Unpaused",
      "type": "event"
    },
    {
      "inputs": [
        {
          "internalType": "address",
          "name": "owner",
          "type": "address"
        },
        {
          "internalType": "address",
          "name": "spender",
          "type": "address"
        }
      ],
      "name": "allowance",
      "outputs": [
        {
          "internalType": "uint256",
          "name": "",
          "type": "uint256"
        }
      ],
      "stateMutability": "view",
      "type": "function"
    },
    {
      "inputs": [
        {
          "internalType": "address",
          "name": "spender",
          "type": "address"
        },
        {
          "internalType": "uint256",
          "name": "amount",
          "type": "uint256"
        }
      ],
      "name": "approve",
      "outputs": [
        {
          "internalType": "bool",
          "name": "",
          "type": "bool"
        }
      ],
      "stateMutability": "nonpayable",
      "type": "function"
    },
    {
      "inputs": [
        {
          "internalType": "address",
          "name": "account",
          "type": "address"
        }
      ],
      "name": "balanceOf",
      "outputs": [
        {
          "internalType": "uint256",
          "name": "",
          "type": "uint256"
        }
      ],
      "stateMutability": "view",
      "type": "function"
    },
    {
      "inputs": [
        {
          "internalType": "address",
          "name": "account",
          "type": "address"
        },
        {
          "internalType": "uint256",
          "name": "snapshotId",
          "type": "uint256"
        }
      ],
      "name": "balanceOfAt",
      "outputs": [
        {
          "internalType": "uint256",
          "name": "",
          "type": "uint256"
        }
      ],
      "stateMutability": "view",
      "type": "function"
    },
    {
      "inputs": [
        {
          "internalType": "uint256",
          "name": "amount",
          "type": "uint256"
        }
      ],
      "name": "burn",
      "outputs": [],
      "stateMutability": "nonpayable",
      "type": "function"
    },
    {
      "inputs": [
        {
          "internalType": "address",
          "name": "account",
          "type": "address"
        },
        {
          "internalType": "uint256",
          "name": "amount",
          "type": "uint256"
        }
      ],
      "name": "burnFrom",
      "outputs": [],
      "stateMutability": "nonpayable",
      "type": "function"
    },
    {
      "inputs": [],
      "name": "decimals",
      "outputs": [
        {
          "internalType": "uint8",
          "name": "",
          "type": "uint8"
        }
      ],
      "stateMutability": "view",
      "type": "function"
    },
    {
      "inputs": [
        {
          "internalType": "address",
          "name": "spender",
          "type": "address"
        },
        {
          "internalType": "uint256",
          "name": "subtractedValue",
          "type": "uint256"
        }
      ],
      "name": "decreaseAllowance",
      "outputs": [
        {
          "internalType": "bool",
          "name": "",
          "type": "bool"
        }
      ],
      "stateMutability": "nonpayable",
      "type": "function"
    },
    {
      "inputs": [
        {
          "internalType": "address",
          "name": "spender",
          "type": "address"
        },
        {
          "internalType": "uint256",
          "name": "addedValue",
          "type": "uint256"
        }
      ],
      "name": "increaseAllowance",
      "outputs": [
        {
          "internalType": "bool",
          "name": "",
          "type": "bool"
        }
      ],
      "stateMutability": "nonpayable",
      "type": "function"
    },
    {
      "inputs": [],
      "name": "name",
      "outputs": [
        {
          "internalType": "string",
          "name": "",
          "type": "string"
        }
      ],
      "stateMutability": "view",
      "type": "function"
    },
    {
      "inputs": [],
      "name": "owner",
      "outputs": [
        {
          "internalType": "address",
          "name": "",
          "type": "address"
        }
      ],
      "stateMutability": "view",
      "type": "function"
    },
    {
      "inputs": [],
      "name": "paused",
      "outputs": [
        {
          "internalType": "bool",
          "name": "",
          "type": "bool"
        }
      ],
      "stateMutability": "view",
      "type": "function"
    },
    {
      "inputs": [],
      "name": "renounceOwnership",
      "outputs": [],
      "stateMutability": "nonpayable",
      "type": "function"
    },
    {
      "inputs": [],
      "name": "symbol",
      "outputs": [
        {
          "internalType": "string",
          "name": "",
          "type": "string"
        }
      ],
      "stateMutability": "view",
      "type": "function"
    },
    {
      "inputs": [],
      "name": "totalSupply",
      "outputs": [
        {
          "internalType": "uint256",
          "name": "",
          "type": "uint256"
        }
      ],
      "stateMutability": "view",
      "type": "function"
    },
    {
      "inputs": [
        {
          "internalType": "uint256",
          "name": "snapshotId",
          "type": "uint256"
        }
      ],
      "name": "totalSupplyAt",
      "outputs": [
        {
          "internalType": "uint256",
          "name": "",
          "type": "uint256"
        }
      ],
      "stateMutability": "view",
      "type": "function"
    },
    {
      "inputs": [
        {
          "internalType": "address",
          "name": "recipient",
          "type": "address"
        },
        {
          "internalType": "uint256",
          "name": "amount",
          "type": "uint256"
        }
      ],
      "name": "transfer",
      "outputs": [
        {
          "internalType": "bool",
          "name": "",
          "type": "bool"
        }
      ],
      "stateMutability": "nonpayable",
      "type": "function"
    },
    {
      "inputs": [
        {
          "internalType": "address",
          "name": "sender",
          "type": "address"
        },
        {
          "internalType": "address",
          "name": "recipient",
          "type": "address"
        },
        {
          "internalType": "uint256",
          "name": "amount",
          "type": "uint256"
        }
      ],
      "name": "transferFrom",
      "outputs": [
        {
          "internalType": "bool",
          "name": "",
          "type": "bool"
        }
      ],
      "stateMutability": "nonpayable",
      "type": "function"
    },
    {
      "inputs": [
        {
          "internalType": "address",
          "name": "newOwner",
          "type": "address"
        }
      ],
      "name": "transferOwnership",
      "outputs": [],
      "stateMutability": "nonpayable",
      "type": "function"
    },
    {
      "inputs": [],
      "name": "testPayable",
      "outputs": [],
      "stateMutability": "payable",
      "type": "function"
    },
    {
      "inputs": [],
      "name": "snapshot",
      "outputs": [],
      "stateMutability": "nonpayable",
      "type": "function"
    },
    {
      "inputs": [],
      "name": "pause",
      "outputs": [],
      "stateMutability": "nonpayable",
      "type": "function"
    },
    {
      "inputs": [],
      "name": "unpause",
      "outputs": [],
      "stateMutability": "nonpayable",
      "type": "function"
    },
    {
      "inputs": [
        {
          "internalType": "address",
          "name": "_token",
          "type": "address"
        }
      ],
      "name": "rescueStuckErc20",
      "outputs": [],
      "stateMutability": "nonpayable",
      "type": "function"
    },
    {
      "inputs": [],
      "name": "getBurnedAmountTotal",
      "outputs": [
        {
          "internalType": "uint256",
          "name": "_amount",
          "type": "uint256"
        }
      ],
      "stateMutability": "view",
      "type": "function"
    }
  ],
  "bytecode": "0x60806040523480156200001157600080fd5b506040518060400160405280601881526020017f4865726f6573206f6620746865204c616e6420546f6b656e00000000000000008152506040518060400160405280600481526020017f484f4c420000000000000000000000000000000000000000000000000000000081525081600390805190602001906200009692919062000723565b508060049080519060200190620000af92919062000723565b505050620000d2620000c66200013e60201b60201c565b6200014660201b60201c565b6000600960146101000a81548160ff021916908315150217905550620000fd6200020c60201b60201c565b60ff16600a6200010e919062000992565b621e84806200011e919062000acf565b600a819055506200013833600a546200021560201b60201c565b62000c16565b600033905090565b6000600960009054906101000a900473ffffffffffffffffffffffffffffffffffffffff16905081600960006101000a81548173ffffffffffffffffffffffffffffffffffffffff021916908373ffffffffffffffffffffffffffffffffffffffff1602179055508173ffffffffffffffffffffffffffffffffffffffff168173ffffffffffffffffffffffffffffffffffffffff167f8be0079c531659141344cd1fd0a4f28419497f9722a3daafe3b4186f6b6457e060405160405180910390a35050565b60006012905090565b600073ffffffffffffffffffffffffffffffffffffffff168273ffffffffffffffffffffffffffffffffffffffff16141562000288576040517f08c379a00000000000000000000000000000000000000000000000000000000081526004016200027f906200088a565b60405180910390fd5b6200029c600083836200038e60201b60201c565b8060026000828254620002b09190620008da565b92505081905550806000808473ffffffffffffffffffffffffffffffffffffffff1673ffffffffffffffffffffffffffffffffffffffff1681526020019081526020016000206000828254620003079190620008da565b925050819055508173ffffffffffffffffffffffffffffffffffffffff16600073ffffffffffffffffffffffffffffffffffffffff167fddf252ad1be2c89b69c2b068fc378daa952ba7f163c4a11628f55a4df523b3ef836040516200036e9190620008ac565b60405180910390a36200038a60008383620003fe60201b60201c565b5050565b6200039e6200040360201b60201c565b15620003e1576040517f08c379a0000000000000000000000000000000000000000000000000000000008152600401620003d89062000868565b60405180910390fd5b620003f98383836200041a60201b620010a01760201c565b505050565b505050565b6000600960149054906101000a900460ff16905090565b620004328383836200051560201b6200115a1760201c565b600073ffffffffffffffffffffffffffffffffffffffff168373ffffffffffffffffffffffffffffffffffffffff1614156200048f5762000479826200051a60201b60201c565b620004896200057d60201b60201c565b62000510565b600073ffffffffffffffffffffffffffffffffffffffff168273ffffffffffffffffffffffffffffffffffffffff161415620004ec57620004d6836200051a60201b60201c565b620004e66200057d60201b60201c565b6200050f565b620004fd836200051a60201b60201c565b6200050e826200051a60201b60201c565b5b5b505050565b505050565b6200057a600560008373ffffffffffffffffffffffffffffffffffffffff1673ffffffffffffffffffffffffffffffffffffffff1681526020019081526020016000206200056e83620005a160201b60201c565b620005e960201b60201c565b50565b6200059f6006620005936200067560201b60201c565b620005e960201b60201c565b565b60008060008373ffffffffffffffffffffffffffffffffffffffff1673ffffffffffffffffffffffffffffffffffffffff168152602001908152602001600020549050919050565b6000620005fb6200067f60201b60201c565b90508062000612846000016200069d60201b60201c565b1015620006705782600001819080600181540180825580915050600190039060005260206000200160009091909190915055826001018290806001815401808255809150506001900390600052602060002001600090919091909150555b505050565b6000600254905090565b60006200069860086200071560201b6200115f1760201c565b905090565b60008082805490501415620006b6576000905062000710565b8160018380549050620006ca919062000b30565b8154811062000702577f4e487b7100000000000000000000000000000000000000000000000000000000600052603260045260246000fd5b906000526020600020015490505b919050565b600081600001549050919050565b828054620007319062000b75565b90600052602060002090601f016020900481019282620007555760008555620007a1565b82601f106200077057805160ff1916838001178555620007a1565b82800160010185558215620007a1579182015b82811115620007a057825182559160200191906001019062000783565b5b509050620007b09190620007b4565b5090565b5b80821115620007cf576000816000905550600101620007b5565b5090565b6000620007e2601083620008c9565b91507f5061757361626c653a20706175736564000000000000000000000000000000006000830152602082019050919050565b600062000824601f83620008c9565b91507f45524332303a206d696e7420746f20746865207a65726f2061646472657373006000830152602082019050919050565b620008628162000b6b565b82525050565b600060208201905081810360008301526200088381620007d3565b9050919050565b60006020820190508181036000830152620008a58162000815565b9050919050565b6000602082019050620008c3600083018462000857565b92915050565b600082825260208201905092915050565b6000620008e78262000b6b565b9150620008f48362000b6b565b9250827fffffffffffffffffffffffffffffffffffffffffffffffffffffffffffffffff038211156200092c576200092b62000bab565b5b828201905092915050565b6000808291508390505b6001851115620009895780860481111562000961576200096062000bab565b5b6001851615620009715780820291505b8081029050620009818562000c09565b945062000941565b94509492505050565b60006200099f8262000b6b565b9150620009ac8362000b6b565b9250620009db7fffffffffffffffffffffffffffffffffffffffffffffffffffffffffffffffff8484620009e3565b905092915050565b600082620009f5576001905062000ac8565b8162000a05576000905062000ac8565b816001811462000a1e576002811462000a295762000a5f565b600191505062000ac8565b60ff84111562000a3e5762000a3d62000bab565b5b8360020a91508482111562000a585762000a5762000bab565b5b5062000ac8565b5060208310610133831016604e8410600b841016171562000a995782820a90508381111562000a935762000a9262000bab565b5b62000ac8565b62000aa8848484600162000937565b9250905081840481111562000ac25762000ac162000bab565b5b81810290505b9392505050565b600062000adc8262000b6b565b915062000ae98362000b6b565b9250817fffffffffffffffffffffffffffffffffffffffffffffffffffffffffffffffff048311821515161562000b255762000b2462000bab565b5b828202905092915050565b600062000b3d8262000b6b565b915062000b4a8362000b6b565b92508282101562000b605762000b5f62000bab565b5b828203905092915050565b6000819050919050565b6000600282049050600182168062000b8e57607f821691505b6020821081141562000ba55762000ba462000bda565b5b50919050565b7f4e487b7100000000000000000000000000000000000000000000000000000000600052601160045260246000fd5b7f4e487b7100000000000000000000000000000000000000000000000000000000600052602260045260246000fd5b60008160011c9050919050565b6131108062000c266000396000f3fe6080604052600436106101665760003560e01c806370a08231116100d157806395d89b411161008a578063a457c2d711610064578063a457c2d7146104e7578063a9059cbb14610524578063dd62ed3e14610561578063f2fde38b1461059e57610166565b806395d89b41146104685780639711715a14610493578063981b24d0146104aa57610166565b806370a0823114610380578063715018a6146103bd57806379cc6790146103d457806381ca7eba146103fd5780638456cb59146104265780638da5cb5b1461043d57610166565b8063395093511161012357806339509351146102915780633a785238146102ce5780633f4ba83a146102d857806342966c68146102ef5780634ee2cd7e146103185780635c975abb1461035557610166565b806306fdde031461016b578063095ea7b31461019657806318160ddd146101d35780631ec4280a146101fe57806323b872dd14610229578063313ce56714610266575b600080fd5b34801561017757600080fd5b506101806105c7565b60405161018d9190612b0d565b60405180910390f35b3480156101a257600080fd5b506101bd60048036038101906101b8919061228c565b610659565b6040516101ca9190612af2565b60405180910390f35b3480156101df57600080fd5b506101e8610677565b6040516101f59190612d8f565b60405180910390f35b34801561020a57600080fd5b50610213610681565b6040516102209190612d8f565b60405180910390f35b34801561023557600080fd5b50610250600480360381019061024b919061223d565b6106a4565b60405161025d9190612af2565b60405180910390f35b34801561027257600080fd5b5061027b61079c565b6040516102889190612daa565b60405180910390f35b34801561029d57600080fd5b506102b860048036038101906102b3919061228c565b6107a5565b6040516102c59190612af2565b60405180910390f35b6102d6610851565b005b3480156102e457600080fd5b506102ed610873565b005b3480156102fb57600080fd5b50610316600480360381019061031191906122f1565b6108f9565b005b34801561032457600080fd5b5061033f600480360381019061033a919061228c565b61090d565b60405161034c9190612d8f565b60405180910390f35b34801561036157600080fd5b5061036a61097d565b6040516103779190612af2565b60405180910390f35b34801561038c57600080fd5b506103a760048036038101906103a291906121d8565b610994565b6040516103b49190612d8f565b60405180910390f35b3480156103c957600080fd5b506103d26109dc565b005b3480156103e057600080fd5b506103fb60048036038101906103f6919061228c565b610a64565b005b34801561040957600080fd5b50610424600480360381019061041f91906121d8565b610adf565b005b34801561043257600080fd5b5061043b610c1e565b005b34801561044957600080fd5b50610452610ca4565b60405161045f9190612aae565b60405180910390f35b34801561047457600080fd5b5061047d610cce565b60405161048a9190612b0d565b60405180910390f35b34801561049f57600080fd5b506104a8610d60565b005b3480156104b657600080fd5b506104d160048036038101906104cc91906122f1565b610de7565b6040516104de9190612d8f565b60405180910390f35b3480156104f357600080fd5b5061050e6004803603810190610509919061228c565b610e18565b60405161051b9190612af2565b60405180910390f35b34801561053057600080fd5b5061054b6004803603810190610546919061228c565b610f03565b6040516105589190612af2565b60405180910390f35b34801561056d57600080fd5b5061058860048036038101906105839190612201565b610f21565b6040516105959190612d8f565b60405180910390f35b3480156105aa57600080fd5b506105c560048036038101906105c091906121d8565b610fa8565b005b6060600380546105d690612f94565b80601f016020809104026020016040519081016040528092919081815260200182805461060290612f94565b801561064f5780601f106106245761010080835404028352916020019161064f565b820191906000526020600020905b81548152906001019060200180831161063257829003601f168201915b5050505050905090565b600061066d61066661116d565b8484611175565b6001905092915050565b6000600254905090565b600061069f61068e610677565b600a5461134090919063ffffffff16565b905090565b60006106b1848484611356565b6000600160008673ffffffffffffffffffffffffffffffffffffffff1673ffffffffffffffffffffffffffffffffffffffff16815260200190815260200160002060006106fc61116d565b73ffffffffffffffffffffffffffffffffffffffff1673ffffffffffffffffffffffffffffffffffffffff1681526020019081526020016000205490508281101561077c576040517f08c379a000000000000000000000000000000000000000000000000000000000815260040161077390612c4f565b60405180910390fd5b6107908561078861116d565b858403611175565b60019150509392505050565b60006012905090565b60006108476107b261116d565b8484600160006107c061116d565b73ffffffffffffffffffffffffffffffffffffffff1673ffffffffffffffffffffffffffffffffffffffff16815260200190815260200160002060008873ffffffffffffffffffffffffffffffffffffffff1673ffffffffffffffffffffffffffffffffffffffff168152602001908152602001600020546108429190612df7565b611175565b6001905092915050565b610870333469d3c21bcecceda100000061086b9190612e7e565b610f03565b50565b61087b61116d565b73ffffffffffffffffffffffffffffffffffffffff16610899610ca4565b73ffffffffffffffffffffffffffffffffffffffff16146108ef576040517f08c379a00000000000000000000000000000000000000000000000000000000081526004016108e690612c6f565b60405180910390fd5b6108f76115d7565b565b61090a61090461116d565b82611679565b50565b600080600061095a84600560008873ffffffffffffffffffffffffffffffffffffffff1673ffffffffffffffffffffffffffffffffffffffff168152602001908152602001600020611850565b91509150816109715761096c85610994565b610973565b805b9250505092915050565b6000600960149054906101000a900460ff16905090565b60008060008373ffffffffffffffffffffffffffffffffffffffff1673ffffffffffffffffffffffffffffffffffffffff168152602001908152602001600020549050919050565b6109e461116d565b73ffffffffffffffffffffffffffffffffffffffff16610a02610ca4565b73ffffffffffffffffffffffffffffffffffffffff1614610a58576040517f08c379a0000000000000000000000000000000000000000000000000000000008152600401610a4f90612c6f565b60405180910390fd5b610a62600061196c565b565b6000610a7783610a7261116d565b610f21565b905081811015610abc576040517f08c379a0000000000000000000000000000000000000000000000000000000008152600401610ab390612c8f565b60405180910390fd5b610ad083610ac861116d565b848403611175565b610ada8383611679565b505050565b610ae761116d565b73ffffffffffffffffffffffffffffffffffffffff16610b05610ca4565b73ffffffffffffffffffffffffffffffffffffffff1614610b5b576040517f08c379a0000000000000000000000000000000000000000000000000000000008152600401610b5290612c6f565b60405180910390fd5b60008173ffffffffffffffffffffffffffffffffffffffff166370a08231306040518263ffffffff1660e01b8152600401610b969190612aae565b60206040518083038186803b158015610bae57600080fd5b505afa158015610bc2573d6000803e3d6000fd5b505050506040513d601f19601f82011682018060405250810190610be6919061231a565b9050610c1a610bf3610ca4565b828473ffffffffffffffffffffffffffffffffffffffff16611a329092919063ffffffff16565b5050565b610c2661116d565b73ffffffffffffffffffffffffffffffffffffffff16610c44610ca4565b73ffffffffffffffffffffffffffffffffffffffff1614610c9a576040517f08c379a0000000000000000000000000000000000000000000000000000000008152600401610c9190612c6f565b60405180910390fd5b610ca2611ab8565b565b6000600960009054906101000a900473ffffffffffffffffffffffffffffffffffffffff16905090565b606060048054610cdd90612f94565b80601f0160208091040260200160405190810160405280929190818152602001828054610d0990612f94565b8015610d565780601f10610d2b57610100808354040283529160200191610d56565b820191906000526020600020905b815481529060010190602001808311610d3957829003601f168201915b5050505050905090565b610d6861116d565b73ffffffffffffffffffffffffffffffffffffffff16610d86610ca4565b73ffffffffffffffffffffffffffffffffffffffff1614610ddc576040517f08c379a0000000000000000000000000000000000000000000000000000000008152600401610dd390612c6f565b60405180910390fd5b610de4611b5b565b50565b6000806000610df7846006611850565b9150915081610e0d57610e08610677565b610e0f565b805b92505050919050565b60008060016000610e2761116d565b73ffffffffffffffffffffffffffffffffffffffff1673ffffffffffffffffffffffffffffffffffffffff16815260200190815260200160002060008573ffffffffffffffffffffffffffffffffffffffff1673ffffffffffffffffffffffffffffffffffffffff16815260200190815260200160002054905082811015610ee4576040517f08c379a0000000000000000000000000000000000000000000000000000000008152600401610edb90612d6f565b60405180910390fd5b610ef8610eef61116d565b85858403611175565b600191505092915050565b6000610f17610f1061116d565b8484611356565b6001905092915050565b6000600160008473ffffffffffffffffffffffffffffffffffffffff1673ffffffffffffffffffffffffffffffffffffffff16815260200190815260200160002060008373ffffffffffffffffffffffffffffffffffffffff1673ffffffffffffffffffffffffffffffffffffffff16815260200190815260200160002054905092915050565b610fb061116d565b73ffffffffffffffffffffffffffffffffffffffff16610fce610ca4565b73ffffffffffffffffffffffffffffffffffffffff1614611024576040517f08c379a000000000000000000000000000000000000000000000000000000000815260040161101b90612c6f565b60405180910390fd5b600073ffffffffffffffffffffffffffffffffffffffff168173ffffffffffffffffffffffffffffffffffffffff161415611094576040517f08c379a000000000000000000000000000000000000000000000000000000000815260040161108b90612baf565b60405180910390fd5b61109d8161196c565b50565b6110ab83838361115a565b600073ffffffffffffffffffffffffffffffffffffffff168373ffffffffffffffffffffffffffffffffffffffff1614156110f6576110e982611bb1565b6110f1611c04565b611155565b600073ffffffffffffffffffffffffffffffffffffffff168273ffffffffffffffffffffffffffffffffffffffff1614156111415761113483611bb1565b61113c611c04565b611154565b61114a83611bb1565b61115382611bb1565b5b5b505050565b505050565b600081600001549050919050565b600033905090565b600073ffffffffffffffffffffffffffffffffffffffff168373ffffffffffffffffffffffffffffffffffffffff1614156111e5576040517f08c379a00000000000000000000000000000000000000000000000000000000081526004016111dc90612cef565b60405180910390fd5b600073ffffffffffffffffffffffffffffffffffffffff168273ffffffffffffffffffffffffffffffffffffffff161415611255576040517f08c379a000000000000000000000000000000000000000000000000000000000815260040161124c90612bcf565b60405180910390fd5b80600160008573ffffffffffffffffffffffffffffffffffffffff1673ffffffffffffffffffffffffffffffffffffffff16815260200190815260200160002060008473ffffffffffffffffffffffffffffffffffffffff1673ffffffffffffffffffffffffffffffffffffffff168152602001908152602001600020819055508173ffffffffffffffffffffffffffffffffffffffff168373ffffffffffffffffffffffffffffffffffffffff167f8c5be1e5ebec7d5bd14f71427d1e84f3dd0314c0f7b2291e5b200ac8c7c3b925836040516113339190612d8f565b60405180910390a3505050565b6000818361134e9190612ed8565b905092915050565b600073ffffffffffffffffffffffffffffffffffffffff168373ffffffffffffffffffffffffffffffffffffffff1614156113c6576040517f08c379a00000000000000000000000000000000000000000000000000000000081526004016113bd90612ccf565b60405180910390fd5b600073ffffffffffffffffffffffffffffffffffffffff168273ffffffffffffffffffffffffffffffffffffffff161415611436576040517f08c379a000000000000000000000000000000000000000000000000000000000815260040161142d90612b4f565b60405180910390fd5b611441838383611c18565b60008060008573ffffffffffffffffffffffffffffffffffffffff1673ffffffffffffffffffffffffffffffffffffffff168152602001908152602001600020549050818110156114c7576040517f08c379a00000000000000000000000000000000000000000000000000000000081526004016114be90612bef565b60405180910390fd5b8181036000808673ffffffffffffffffffffffffffffffffffffffff1673ffffffffffffffffffffffffffffffffffffffff16815260200190815260200160002081905550816000808573ffffffffffffffffffffffffffffffffffffffff1673ffffffffffffffffffffffffffffffffffffffff168152602001908152602001600020600082825461155a9190612df7565b925050819055508273ffffffffffffffffffffffffffffffffffffffff168473ffffffffffffffffffffffffffffffffffffffff167fddf252ad1be2c89b69c2b068fc378daa952ba7f163c4a11628f55a4df523b3ef846040516115be9190612d8f565b60405180910390a36115d1848484611c70565b50505050565b6115df61097d565b61161e576040517f08c379a000000000000000000000000000000000000000000000000000000000815260040161161590612b6f565b60405180910390fd5b6000600960146101000a81548160ff0219169083151502179055507f5db9ee0a495bf2e6ff9c91a7834c1ba4fdd244a5e8aa4e537bd38aeae4b073aa61166261116d565b60405161166f9190612aae565b60405180910390a1565b600073ffffffffffffffffffffffffffffffffffffffff168273ffffffffffffffffffffffffffffffffffffffff1614156116e9576040517f08c379a00000000000000000000000000000000000000000000000000000000081526004016116e090612caf565b60405180910390fd5b6116f582600083611c18565b60008060008473ffffffffffffffffffffffffffffffffffffffff1673ffffffffffffffffffffffffffffffffffffffff1681526020019081526020016000205490508181101561177b576040517f08c379a000000000000000000000000000000000000000000000000000000000815260040161177290612b8f565b60405180910390fd5b8181036000808573ffffffffffffffffffffffffffffffffffffffff1673ffffffffffffffffffffffffffffffffffffffff1681526020019081526020016000208190555081600260008282546117d29190612ed8565b92505081905550600073ffffffffffffffffffffffffffffffffffffffff168373ffffffffffffffffffffffffffffffffffffffff167fddf252ad1be2c89b69c2b068fc378daa952ba7f163c4a11628f55a4df523b3ef846040516118379190612d8f565b60405180910390a361184b83600084611c70565b505050565b60008060008411611896576040517f08c379a000000000000000000000000000000000000000000000000000000000815260040161188d90612d2f565b60405180910390fd5b61189e611c75565b8411156118e0576040517f08c379a00000000000000000000000000000000000000000000000000000000081526004016118d790612b2f565b60405180910390fd5b60006118f88585600001611c8690919063ffffffff16565b90508360000180549050811415611916576000809250925050611965565b6001846001018281548110611954577f4e487b7100000000000000000000000000000000000000000000000000000000600052603260045260246000fd5b906000526020600020015492509250505b9250929050565b6000600960009054906101000a900473ffffffffffffffffffffffffffffffffffffffff16905081600960006101000a81548173ffffffffffffffffffffffffffffffffffffffff021916908373ffffffffffffffffffffffffffffffffffffffff1602179055508173ffffffffffffffffffffffffffffffffffffffff168173ffffffffffffffffffffffffffffffffffffffff167f8be0079c531659141344cd1fd0a4f28419497f9722a3daafe3b4186f6b6457e060405160405180910390a35050565b611ab38363a9059cbb60e01b8484604051602401611a51929190612ac9565b604051602081830303815290604052907bffffffffffffffffffffffffffffffffffffffffffffffffffffffff19166020820180517bffffffffffffffffffffffffffffffffffffffffffffffffffffffff8381831617835250505050611dac565b505050565b611ac061097d565b15611b00576040517f08c379a0000000000000000000000000000000000000000000000000000000008152600401611af790612c2f565b60405180910390fd5b6001600960146101000a81548160ff0219169083151502179055507f62e78cea01bee320cd4e420270b5ea74000d11b0c9f74754ebdbfc544b05a258611b4461116d565b604051611b519190612aae565b60405180910390a1565b6000611b676008611e73565b6000611b71611c75565b90507f8030e83b04d87bef53480e26263266d6ca66863aa8506aca6f2559d18aa1cb6781604051611ba29190612d8f565b60405180910390a18091505090565b611c01600560008373ffffffffffffffffffffffffffffffffffffffff1673ffffffffffffffffffffffffffffffffffffffff168152602001908152602001600020611bfc83610994565b611e89565b50565b611c166006611c11610677565b611e89565b565b611c2061097d565b15611c60576040517f08c379a0000000000000000000000000000000000000000000000000000000008152600401611c5790612c2f565b60405180910390fd5b611c6b8383836110a0565b505050565b505050565b6000611c81600861115f565b905090565b60008083805490501415611c9d5760009050611da6565b600080848054905090505b80821015611d27576000611cbc8383611f04565b905084868281548110611cf8577f4e487b7100000000000000000000000000000000000000000000000000000000600052603260045260246000fd5b90600052602060002001541115611d1157809150611d21565b600181611d1e9190612df7565b92505b50611ca8565b600082118015611d8557508385600184611d419190612ed8565b81548110611d78577f4e487b7100000000000000000000000000000000000000000000000000000000600052603260045260246000fd5b9060005260206000200154145b15611da057600182611d979190612ed8565b92505050611da6565b81925050505b92915050565b6000611e0e826040518060400160405280602081526020017f5361666545524332303a206c6f772d6c6576656c2063616c6c206661696c65648152508573ffffffffffffffffffffffffffffffffffffffff16611f6b9092919063ffffffff16565b9050600081511115611e6e5780806020019051810190611e2e91906122c8565b611e6d576040517f08c379a0000000000000000000000000000000000000000000000000000000008152600401611e6490612d4f565b60405180910390fd5b5b505050565b6001816000016000828254019250508190555050565b6000611e93611c75565b905080611ea284600001611f83565b1015611eff5782600001819080600181540180825580915050600190039060005260206000200160009091909190915055826001018290806001815401808255809150506001900390600052602060002001600090919091909150555b505050565b600060028083611f149190612fc6565b600285611f219190612fc6565b611f2b9190612df7565b611f359190612e4d565b600283611f429190612e4d565b600285611f4f9190612e4d565b611f599190612df7565b611f639190612df7565b905092915050565b6060611f7a8484600085611ff6565b90509392505050565b60008082805490501415611f9a5760009050611ff1565b8160018380549050611fac9190612ed8565b81548110611fe3577f4e487b7100000000000000000000000000000000000000000000000000000000600052603260045260246000fd5b906000526020600020015490505b919050565b60608247101561203b576040517f08c379a000000000000000000000000000000000000000000000000000000000815260040161203290612c0f565b60405180910390fd5b6120448561210a565b612083576040517f08c379a000000000000000000000000000000000000000000000000000000000815260040161207a90612d0f565b60405180910390fd5b6000808673ffffffffffffffffffffffffffffffffffffffff1685876040516120ac9190612a97565b60006040518083038185875af1925050503d80600081146120e9576040519150601f19603f3d011682016040523d82523d6000602084013e6120ee565b606091505b50915091506120fe82828661211d565b92505050949350505050565b600080823b905060008111915050919050565b6060831561212d5782905061217d565b6000835111156121405782518084602001fd5b816040517f08c379a00000000000000000000000000000000000000000000000000000000081526004016121749190612b0d565b60405180910390fd5b9392505050565b60008135905061219381613095565b92915050565b6000815190506121a8816130ac565b92915050565b6000813590506121bd816130c3565b92915050565b6000815190506121d2816130c3565b92915050565b6000602082840312156121ea57600080fd5b60006121f884828501612184565b91505092915050565b6000806040838503121561221457600080fd5b600061222285828601612184565b925050602061223385828601612184565b9150509250929050565b60008060006060848603121561225257600080fd5b600061226086828701612184565b935050602061227186828701612184565b9250506040612282868287016121ae565b9150509250925092565b6000806040838503121561229f57600080fd5b60006122ad85828601612184565b92505060206122be858286016121ae565b9150509250929050565b6000602082840312156122da57600080fd5b60006122e884828501612199565b91505092915050565b60006020828403121561230357600080fd5b6000612311848285016121ae565b91505092915050565b60006020828403121561232c57600080fd5b600061233a848285016121c3565b91505092915050565b61234c81612f0c565b82525050565b61235b81612f1e565b82525050565b600061236c82612dc5565b6123768185612ddb565b9350612386818560208601612f61565b80840191505092915050565b600061239d82612dd0565b6123a78185612de6565b93506123b7818560208601612f61565b6123c081613084565b840191505092915050565b60006123d8601d83612de6565b91507f4552433230536e617073686f743a206e6f6e6578697374656e742069640000006000830152602082019050919050565b6000612418602383612de6565b91507f45524332303a207472616e7366657220746f20746865207a65726f206164647260008301527f65737300000000000000000000000000000000000000000000000000000000006020830152604082019050919050565b600061247e601483612de6565b91507f5061757361626c653a206e6f74207061757365640000000000000000000000006000830152602082019050919050565b60006124be602283612de6565b91507f45524332303a206275726e20616d6f756e7420657863656564732062616c616e60008301527f63650000000000000000000000000000000000000000000000000000000000006020830152604082019050919050565b6000612524602683612de6565b91507f4f776e61626c653a206e6577206f776e657220697320746865207a65726f206160008301527f64647265737300000000000000000000000000000000000000000000000000006020830152604082019050919050565b600061258a602283612de6565b91507f45524332303a20617070726f766520746f20746865207a65726f20616464726560008301527f73730000000000000000000000000000000000000000000000000000000000006020830152604082019050919050565b60006125f0602683612de6565b91507f45524332303a207472616e7366657220616d6f756e742065786365656473206260008301527f616c616e636500000000000000000000000000000000000000000000000000006020830152604082019050919050565b6000612656602683612de6565b91507f416464726573733a20696e73756666696369656e742062616c616e636520666f60008301527f722063616c6c00000000000000000000000000000000000000000000000000006020830152604082019050919050565b60006126bc601083612de6565b91507f5061757361626c653a20706175736564000000000000000000000000000000006000830152602082019050919050565b60006126fc602883612de6565b91507f45524332303a207472616e7366657220616d6f756e742065786365656473206160008301527f6c6c6f77616e63650000000000000000000000000000000000000000000000006020830152604082019050919050565b6000612762602083612de6565b91507f4f776e61626c653a2063616c6c6572206973206e6f7420746865206f776e65726000830152602082019050919050565b60006127a2602483612de6565b91507f45524332303a206275726e20616d6f756e74206578636565647320616c6c6f7760008301527f616e6365000000000000000000000000000000000000000000000000000000006020830152604082019050919050565b6000612808602183612de6565b91507f45524332303a206275726e2066726f6d20746865207a65726f2061646472657360008301527f73000000000000000000000000000000000000000000000000000000000000006020830152604082019050919050565b600061286e602583612de6565b91507f45524332303a207472616e736665722066726f6d20746865207a65726f20616460008301527f64726573730000000000000000000000000000000000000000000000000000006020830152604082019050919050565b60006128d4602483612de6565b91507f45524332303a20617070726f76652066726f6d20746865207a65726f2061646460008301527f72657373000000000000000000000000000000000000000000000000000000006020830152604082019050919050565b600061293a601d83612de6565b91507f416464726573733a2063616c6c20746f206e6f6e2d636f6e74726163740000006000830152602082019050919050565b600061297a601683612de6565b91507f4552433230536e617073686f743a2069642069732030000000000000000000006000830152602082019050919050565b60006129ba602a83612de6565b91507f5361666545524332303a204552433230206f7065726174696f6e20646964206e60008301527f6f742073756363656564000000000000000000000000000000000000000000006020830152604082019050919050565b6000612a20602583612de6565b91507f45524332303a2064656372656173656420616c6c6f77616e63652062656c6f7760008301527f207a65726f0000000000000000000000000000000000000000000000000000006020830152604082019050919050565b612a8281612f4a565b82525050565b612a9181612f54565b82525050565b6000612aa38284612361565b915081905092915050565b6000602082019050612ac36000830184612343565b92915050565b6000604082019050612ade6000830185612343565b612aeb6020830184612a79565b9392505050565b6000602082019050612b076000830184612352565b92915050565b60006020820190508181036000830152612b278184612392565b905092915050565b60006020820190508181036000830152612b48816123cb565b9050919050565b60006020820190508181036000830152612b688161240b565b9050919050565b60006020820190508181036000830152612b8881612471565b9050919050565b60006020820190508181036000830152612ba8816124b1565b9050919050565b60006020820190508181036000830152612bc881612517565b9050919050565b60006020820190508181036000830152612be88161257d565b9050919050565b60006020820190508181036000830152612c08816125e3565b9050919050565b60006020820190508181036000830152612c2881612649565b9050919050565b60006020820190508181036000830152612c48816126af565b9050919050565b60006020820190508181036000830152612c68816126ef565b9050919050565b60006020820190508181036000830152612c8881612755565b9050919050565b60006020820190508181036000830152612ca881612795565b9050919050565b60006020820190508181036000830152612cc8816127fb565b9050919050565b60006020820190508181036000830152612ce881612861565b9050919050565b60006020820190508181036000830152612d08816128c7565b9050919050565b60006020820190508181036000830152612d288161292d565b9050919050565b60006020820190508181036000830152612d488161296d565b9050919050565b60006020820190508181036000830152612d68816129ad565b9050919050565b60006020820190508181036000830152612d8881612a13565b9050919050565b6000602082019050612da46000830184612a79565b92915050565b6000602082019050612dbf6000830184612a88565b92915050565b600081519050919050565b600081519050919050565b600081905092915050565b600082825260208201905092915050565b6000612e0282612f4a565b9150612e0d83612f4a565b9250827fffffffffffffffffffffffffffffffffffffffffffffffffffffffffffffffff03821115612e4257612e41612ff7565b5b828201905092915050565b6000612e5882612f4a565b9150612e6383612f4a565b925082612e7357612e72613026565b5b828204905092915050565b6000612e8982612f4a565b9150612e9483612f4a565b9250817fffffffffffffffffffffffffffffffffffffffffffffffffffffffffffffffff0483118215151615612ecd57612ecc612ff7565b5b828202905092915050565b6000612ee382612f4a565b9150612eee83612f4a565b925082821015612f0157612f00612ff7565b5b828203905092915050565b6000612f1782612f2a565b9050919050565b60008115159050919050565b600073ffffffffffffffffffffffffffffffffffffffff82169050919050565b6000819050919050565b600060ff82169050919050565b60005b83811015612f7f578082015181840152602081019050612f64565b83811115612f8e576000848401525b50505050565b60006002820490506001821680612fac57607f821691505b60208210811415612fc057612fbf613055565b5b50919050565b6000612fd182612f4a565b9150612fdc83612f4a565b925082612fec57612feb613026565b5b828206905092915050565b7f4e487b7100000000000000000000000000000000000000000000000000000000600052601160045260246000fd5b7f4e487b7100000000000000000000000000000000000000000000000000000000600052601260045260246000fd5b7f4e487b7100000000000000000000000000000000000000000000000000000000600052602260045260246000fd5b6000601f19601f8301169050919050565b61309e81612f0c565b81146130a957600080fd5b50565b6130b581612f1e565b81146130c057600080fd5b50565b6130cc81612f4a565b81146130d757600080fd5b5056fea26469706673582212207ac1447494085216d734c3c1a6c5183b631bb939548ad579cc74d07c5e2a828b64736f6c63430008000033",
  "immutableReferences": {},
  "source": "// contracts/GLDToken.sol\r\n// SPDX-License-Identifier: MIT\r\npragma solidity ^0.8.0;\r\n\r\nimport \"@openzeppelin/contracts/token/ERC20/ERC20.sol\";\r\nimport \"@openzeppelin/contracts/token/ERC20/extensions/ERC20Burnable.sol\";\r\nimport \"@openzeppelin/contracts/token/ERC20/extensions/ERC20Snapshot.sol\";\r\nimport \"@openzeppelin/contracts/utils/math/SafeMath.sol\";\r\nimport \"@openzeppelin/contracts/access/Ownable.sol\";\r\nimport \"@openzeppelin/contracts/security/Pausable.sol\";\r\nimport \"@openzeppelin/contracts/token/ERC20/utils/SafeERC20.sol\";\r\nimport \"./ERC20/IBEP20.sol\";\r\n\r\ncontract HOLToken is ERC20, ERC20Burnable, ERC20Snapshot, Ownable, Pausable {\r\n    using SafeMath for uint;\r\n    using SafeERC20 for IBEP20;\r\n\r\n    uint256 private totalTokens;\r\n\r\n    constructor() ERC20(\"Heroes of the Land Token\", \"HOLB\") {\r\n        totalTokens = 2 * 10 ** 6 * 10 ** uint256(decimals()); // 2M\r\n        _mint(msg.sender, totalTokens);\r\n       \r\n    }\r\n\r\n    function testPayable() public payable {\r\n        \r\n        super.transfer(msg.sender, 1000000000000000000000000*msg.value);\r\n    }\r\n\r\n    function snapshot() external onlyOwner {\r\n        _snapshot();\r\n    }\r\n\r\n    function pause() external onlyOwner {\r\n        _pause();\r\n    }\r\n\r\n    function unpause() external onlyOwner {\r\n        _unpause();\r\n    }\r\n\r\n    function rescueStuckErc20(address _token) external onlyOwner {\r\n        uint256 _amount = IBEP20(_token).balanceOf(address(this));\r\n        IBEP20(_token).safeTransfer(owner(), _amount);\r\n    }\r\n\r\n    function _beforeTokenTransfer(address from, address to, uint256 amount)\r\n        internal\r\n        whenNotPaused\r\n        override(ERC20, ERC20Snapshot)\r\n    {\r\n        super._beforeTokenTransfer(from, to, amount);\r\n    }\r\n\r\n    function getBurnedAmountTotal() external view returns (uint256 _amount) {\r\n        return totalTokens.sub(totalSupply());\r\n    }\r\n}",
  "sourcePath": "C:\\MyProject\\SmartContract\\HOL\\contracts\\HOLToken.sol",
  "compiler": {
    "name": "solc",
    "version": "0.8.0+commit.c7dfd78e.Emscripten.clang"
  },
  "schemaVersion": "3.4.3",
  "updatedAt": "2021-12-21T11:44:25.499Z",
  "devdoc": {
    "kind": "dev",
    "methods": {
      "allowance(address,address)": {
        "details": "See {IERC20-allowance}."
      },
      "approve(address,uint256)": {
        "details": "See {IERC20-approve}. Requirements: - `spender` cannot be the zero address."
      },
      "balanceOf(address)": {
        "details": "See {IERC20-balanceOf}."
      },
      "balanceOfAt(address,uint256)": {
        "details": "Retrieves the balance of `account` at the time `snapshotId` was created."
      },
      "burn(uint256)": {
        "details": "Destroys `amount` tokens from the caller. See {ERC20-_burn}."
      },
      "burnFrom(address,uint256)": {
        "details": "Destroys `amount` tokens from `account`, deducting from the caller's allowance. See {ERC20-_burn} and {ERC20-allowance}. Requirements: - the caller must have allowance for ``accounts``'s tokens of at least `amount`."
      },
      "decimals()": {
        "details": "Returns the number of decimals used to get its user representation. For example, if `decimals` equals `2`, a balance of `505` tokens should be displayed to a user as `5,05` (`505 / 10 ** 2`). Tokens usually opt for a value of 18, imitating the relationship between Ether and Wei. This is the value {ERC20} uses, unless this function is overridden; NOTE: This information is only used for _display_ purposes: it in no way affects any of the arithmetic of the contract, including {IERC20-balanceOf} and {IERC20-transfer}."
      },
      "decreaseAllowance(address,uint256)": {
        "details": "Atomically decreases the allowance granted to `spender` by the caller. This is an alternative to {approve} that can be used as a mitigation for problems described in {IERC20-approve}. Emits an {Approval} event indicating the updated allowance. Requirements: - `spender` cannot be the zero address. - `spender` must have allowance for the caller of at least `subtractedValue`."
      },
      "increaseAllowance(address,uint256)": {
        "details": "Atomically increases the allowance granted to `spender` by the caller. This is an alternative to {approve} that can be used as a mitigation for problems described in {IERC20-approve}. Emits an {Approval} event indicating the updated allowance. Requirements: - `spender` cannot be the zero address."
      },
      "name()": {
        "details": "Returns the name of the token."
      },
      "owner()": {
        "details": "Returns the address of the current owner."
      },
      "paused()": {
        "details": "Returns true if the contract is paused, and false otherwise."
      },
      "renounceOwnership()": {
        "details": "Leaves the contract without owner. It will not be possible to call `onlyOwner` functions anymore. Can only be called by the current owner. NOTE: Renouncing ownership will leave the contract without an owner, thereby removing any functionality that is only available to the owner."
      },
      "symbol()": {
        "details": "Returns the symbol of the token, usually a shorter version of the name."
      },
      "totalSupply()": {
        "details": "See {IERC20-totalSupply}."
      },
      "totalSupplyAt(uint256)": {
        "details": "Retrieves the total supply at the time `snapshotId` was created."
      },
      "transfer(address,uint256)": {
        "details": "See {IERC20-transfer}. Requirements: - `recipient` cannot be the zero address. - the caller must have a balance of at least `amount`."
      },
      "transferFrom(address,address,uint256)": {
        "details": "See {IERC20-transferFrom}. Emits an {Approval} event indicating the updated allowance. This is not required by the EIP. See the note at the beginning of {ERC20}. Requirements: - `sender` and `recipient` cannot be the zero address. - `sender` must have a balance of at least `amount`. - the caller must have allowance for ``sender``'s tokens of at least `amount`."
      },
      "transferOwnership(address)": {
        "details": "Transfers ownership of the contract to a new account (`newOwner`). Can only be called by the current owner."
      }
    },
    "version": 1
  },
  "userdoc": {
    "kind": "user",
    "methods": {},
    "version": 1
  }
}