{
  "contractName": "TokenVesting",
  "abi": [
    {
      "inputs": [
        {
          "internalType": "address",
          "name": "_token",
          "type": "address"
        },
        {
          "internalType": "uint256",
          "name": "_tokenListingDate",
          "type": "uint256"
        }
      ],
      "stateMutability": "nonpayable",
      "type": "constructor"
    },
    {
      "anonymous": false,
      "inputs": [
        {
          "indexed": true,
          "internalType": "address",
          "name": "previousOwner",
          "type": "address"
        },
        {
          "indexed": true,
          "internalType": "address",
          "name": "newOwner",
          "type": "address"
        }
      ],
      "name": "OwnershipTransferred",
      "type": "event"
    },
    {
      "anonymous": false,
      "inputs": [
        {
          "indexed": true,
          "internalType": "address",
          "name": "beneficiary",
          "type": "address"
        },
        {
          "indexed": false,
          "internalType": "uint256",
          "name": "amount",
          "type": "uint256"
        }
      ],
      "name": "Released",
      "type": "event"
    },
    {
      "inputs": [
        {
          "internalType": "address",
          "name": "",
          "type": "address"
        }
      ],
      "name": "beneficiaries",
      "outputs": [
        {
          "internalType": "address",
          "name": "beneficiary",
          "type": "address"
        },
        {
          "internalType": "uint256",
          "name": "lockDuration",
          "type": "uint256"
        },
        {
          "internalType": "uint256",
          "name": "duration",
          "type": "uint256"
        },
        {
          "internalType": "uint256",
          "name": "amount",
          "type": "uint256"
        },
        {
          "internalType": "uint256",
          "name": "leftOverVestingAmount",
          "type": "uint256"
        },
        {
          "internalType": "uint256",
          "name": "released",
          "type": "uint256"
        },
        {
          "internalType": "uint256",
          "name": "upfrontAmount",
          "type": "uint256"
        },
        {
          "internalType": "uint256",
          "name": "startedAt",
          "type": "uint256"
        },
        {
          "internalType": "uint256",
          "name": "interval",
          "type": "uint256"
        },
        {
          "internalType": "uint256",
          "name": "lastReleasedAt",
          "type": "uint256"
        }
      ],
      "stateMutability": "view",
      "type": "function"
    },
    {
      "inputs": [
        {
          "internalType": "uint256",
          "name": "",
          "type": "uint256"
        }
      ],
      "name": "beneficiaryAddresses",
      "outputs": [
        {
          "internalType": "address",
          "name": "",
          "type": "address"
        }
      ],
      "stateMutability": "view",
      "type": "function"
    },
    {
      "inputs": [],
      "name": "owner",
      "outputs": [
        {
          "internalType": "address",
          "name": "",
          "type": "address"
        }
      ],
      "stateMutability": "view",
      "type": "function"
    },
    {
      "inputs": [],
      "name": "renounceOwnership",
      "outputs": [],
      "stateMutability": "nonpayable",
      "type": "function"
    },
    {
      "inputs": [],
      "name": "token",
      "outputs": [
        {
          "internalType": "contract IStandardBEP20",
          "name": "",
          "type": "address"
        }
      ],
      "stateMutability": "view",
      "type": "function"
    },
    {
      "inputs": [],
      "name": "tokenListingDate",
      "outputs": [
        {
          "internalType": "uint256",
          "name": "",
          "type": "uint256"
        }
      ],
      "stateMutability": "view",
      "type": "function"
    },
    {
      "inputs": [],
      "name": "tokenVestingCap",
      "outputs": [
        {
          "internalType": "uint256",
          "name": "",
          "type": "uint256"
        }
      ],
      "stateMutability": "view",
      "type": "function"
    },
    {
      "inputs": [
        {
          "internalType": "address",
          "name": "newOwner",
          "type": "address"
        }
      ],
      "name": "transferOwnership",
      "outputs": [],
      "stateMutability": "nonpayable",
      "type": "function"
    },
    {
      "inputs": [
        {
          "internalType": "uint256",
          "name": "_tokenListingDate",
          "type": "uint256"
        }
      ],
      "name": "setTokenListingDate",
      "outputs": [],
      "stateMutability": "nonpayable",
      "type": "function"
    },
    {
      "inputs": [
        {
          "internalType": "address",
          "name": "_beneficiary",
          "type": "address"
        },
        {
          "internalType": "uint256",
          "name": "_amount",
          "type": "uint256"
        },
        {
          "internalType": "uint256",
          "name": "_lockDuration",
          "type": "uint256"
        },
        {
          "internalType": "uint256",
          "name": "_duration",
          "type": "uint256"
        },
        {
          "internalType": "uint256",
          "name": "_upfrontAmount",
          "type": "uint256"
        },
        {
          "internalType": "uint256",
          "name": "_interval",
          "type": "uint256"
        }
      ],
      "name": "addBeneficiary",
      "outputs": [],
      "stateMutability": "nonpayable",
      "type": "function"
    },
    {
      "inputs": [
        {
          "internalType": "address",
          "name": "_beneficiary",
          "type": "address"
        }
      ],
      "name": "releasableAmount",
      "outputs": [
        {
          "internalType": "uint256",
          "name": "",
          "type": "uint256"
        },
        {
          "internalType": "uint256",
          "name": "",
          "type": "uint256"
        },
        {
          "internalType": "uint256",
          "name": "",
          "type": "uint256"
        }
      ],
      "stateMutability": "view",
      "type": "function"
    },
    {
      "inputs": [
        {
          "internalType": "address",
          "name": "_beneficiary",
          "type": "address"
        }
      ],
      "name": "vestedAmount",
      "outputs": [
        {
          "internalType": "uint256",
          "name": "",
          "type": "uint256"
        },
        {
          "internalType": "uint256",
          "name": "",
          "type": "uint256"
        }
      ],
      "stateMutability": "view",
      "type": "function"
    },
    {
      "inputs": [],
      "name": "releaseBeneficiaryTokens",
      "outputs": [],
      "stateMutability": "nonpayable",
      "type": "function"
    },
    {
      "inputs": [],
      "name": "releaseMyTokens",
      "outputs": [],
      "stateMutability": "nonpayable",
      "type": "function"
    }
  ],
  "bytecode": "0x60806040523480156200001157600080fd5b50604051620027ed380380620027ed8339818101604052810190620000379190620001ac565b620000576200004b620000b260201b60201c565b620000ba60201b60201c565b81600160006101000a81548173ffffffffffffffffffffffffffffffffffffffff021916908373ffffffffffffffffffffffffffffffffffffffff1602179055506000811115620000aa57806004819055505b50506200025f565b600033905090565b60008060009054906101000a900473ffffffffffffffffffffffffffffffffffffffff169050816000806101000a81548173ffffffffffffffffffffffffffffffffffffffff021916908373ffffffffffffffffffffffffffffffffffffffff1602179055508173ffffffffffffffffffffffffffffffffffffffff168173ffffffffffffffffffffffffffffffffffffffff167f8be0079c531659141344cd1fd0a4f28419497f9722a3daafe3b4186f6b6457e060405160405180910390a35050565b6000815190506200018f816200022b565b92915050565b600081519050620001a68162000245565b92915050565b60008060408385031215620001c057600080fd5b6000620001d0858286016200017e565b9250506020620001e38582860162000195565b9150509250929050565b6000620001fa8262000201565b9050919050565b600073ffffffffffffffffffffffffffffffffffffffff82169050919050565b6000819050919050565b6200023681620001ed565b81146200024257600080fd5b50565b620002508162000221565b81146200025c57600080fd5b50565b61257e806200026f6000396000f3fe608060405234801561001057600080fd5b50600436106100ea5760003560e01c8063715018a61161008c578063bc4a5f3411610066578063bc4a5f3414610233578063ea12e6ee1461024f578063f2fde38b1461026b578063fc0c546a14610287576100ea565b8063715018a6146101ed57806384623e8c146101f75780638da5cb5b14610215576100ea565b80631726cbc8116100c85780631726cbc814610176578063384711cc146101a85780635b0e1a2f146101d95780636b691e69146101e3576100ea565b806301567739146100ef578063041a4aba14610128578063097bb9e014610146575b600080fd5b610109600480360381019061010491906118f6565b6102a5565b60405161011f9a99989796959493929190611f91565b60405180910390f35b610130610319565b60405161013d91906121ea565b60405180910390f35b610160600480360381019061015b91906119d1565b61031f565b60405161016d9190611f4d565b60405180910390f35b610190600480360381019061018b91906118f6565b61035e565b60405161019f9392919061222e565b60405180910390f35b6101c260048036038101906101bd91906118f6565b6104b8565b6040516101d0929190612205565b60405180910390f35b6101e16107eb565b005b6101eb6108f4565b005b6101f5610a8d565b005b6101ff610b15565b60405161020c91906121ea565b60405180910390f35b61021d610b1b565b60405161022a9190611f4d565b60405180910390f35b61024d600480360381019061024891906119d1565b610b44565b005b6102696004803603810190610264919061191f565b610cfe565b005b610285600480360381019061028091906118f6565b611247565b005b61028f61133f565b60405161029c919061202d565b60405180910390f35b60026020528060005260406000206000915090508060000160009054906101000a900473ffffffffffffffffffffffffffffffffffffffff1690806001015490806002015490806003015490806004015490806005015490806006015490806007015490806008015490806009015490508a565b60045481565b6003818154811061032f57600080fd5b906000526020600020016000915054906101000a900473ffffffffffffffffffffffffffffffffffffffff1681565b600080600080600260008673ffffffffffffffffffffffffffffffffffffffff1673ffffffffffffffffffffffffffffffffffffffff168152602001908152602001600020604051806101400160405290816000820160009054906101000a900473ffffffffffffffffffffffffffffffffffffffff1673ffffffffffffffffffffffffffffffffffffffff1673ffffffffffffffffffffffffffffffffffffffff1681526020016001820154815260200160028201548152602001600382015481526020016004820154815260200160058201548152602001600682015481526020016007820154815260200160088201548152602001600982015481525050905060008160600151141561047e5760008042935093509350506104b1565b60008061048a876104b8565b91509150816104a68460a001518461136590919063ffffffff16565b829550955095505050505b9193909250565b6000806000600260008573ffffffffffffffffffffffffffffffffffffffff1673ffffffffffffffffffffffffffffffffffffffff168152602001908152602001600020604051806101400160405290816000820160009054906101000a900473ffffffffffffffffffffffffffffffffffffffff1673ffffffffffffffffffffffffffffffffffffffff1673ffffffffffffffffffffffffffffffffffffffff168152602001600182015481526020016002820154815260200160038201548152602001600482015481526020016005820154815260200160068201548152602001600782015481526020016008820154815260200160098201548152505090506000816060015111610601576040517f08c379a00000000000000000000000000000000000000000000000000000000081526004016105f89061216a565b60405180910390fd5b60008160e001511415610623578060a0015181610120015192509250506107e6565b6000816040015114156106445780606001518160e0015192509250506107e6565b8060e00151421015610665578060a0015181610120015192509250506107e6565b61068081604001518260e0015161137b90919063ffffffff16565b42106106b05780606001516106a682604001518360e0015161137b90919063ffffffff16565b92509250506107e6565b60008161012001511180156106d95750806101200151816101000151426106d79190612378565b105b156106f3578060a0015181610120015192509250506107e6565b60008160a00151905060008083610120015111610714578260e0015161071b565b8261012001515b905060005b6107388461010001518361137b90919063ffffffff16565b42106107735761075260018261137b90919063ffffffff16565b905061076c8461010001518361137b90919063ffffffff16565b9150610720565b60008111156107db5760006107c285604001516107b46107a18861010001518661139190919063ffffffff16565b886080015161139190919063ffffffff16565b6113a790919063ffffffff16565b90506107d7818561137b90919063ffffffff16565b9350505b828295509550505050505b915091565b6107f36113bd565b73ffffffffffffffffffffffffffffffffffffffff16610811610b1b565b73ffffffffffffffffffffffffffffffffffffffff16148061087c575060006002600061083c6113bd565b73ffffffffffffffffffffffffffffffffffffffff1673ffffffffffffffffffffffffffffffffffffffff16815260200190815260200160002060030154115b6108bb576040517f08c379a00000000000000000000000000000000000000000000000000000000081526004016108b29061214a565b60405180910390fd5b6000806108ce6108c96113bd565b61035e565b925092505060008211156108f0576108ee6108e76113bd565b83836113c5565b505b5050565b6108fc6113bd565b73ffffffffffffffffffffffffffffffffffffffff1661091a610b1b565b73ffffffffffffffffffffffffffffffffffffffff1614610970576040517f08c379a00000000000000000000000000000000000000000000000000000000081526004016109679061210a565b60405180910390fd5b6000600380549050905060005b81811015610a89576000806109f5600384815481106109c5577f4e487b7100000000000000000000000000000000000000000000000000000000600052603260045260246000fd5b9060005260206000200160009054906101000a900473ffffffffffffffffffffffffffffffffffffffff1661035e565b92509250506000821115610a7457610a7260038481548110610a40577f4e487b7100000000000000000000000000000000000000000000000000000000600052603260045260246000fd5b9060005260206000200160009054906101000a900473ffffffffffffffffffffffffffffffffffffffff1683836113c5565b505b50508080610a819061244b565b91505061097d565b5050565b610a956113bd565b73ffffffffffffffffffffffffffffffffffffffff16610ab3610b1b565b73ffffffffffffffffffffffffffffffffffffffff1614610b09576040517f08c379a0000000000000000000000000000000000000000000000000000000008152600401610b009061210a565b60405180910390fd5b610b1360006114eb565b565b60055481565b60008060009054906101000a900473ffffffffffffffffffffffffffffffffffffffff16905090565b610b4c6113bd565b73ffffffffffffffffffffffffffffffffffffffff16610b6a610b1b565b73ffffffffffffffffffffffffffffffffffffffff1614610bc0576040517f08c379a0000000000000000000000000000000000000000000000000000000008152600401610bb79061210a565b60405180910390fd5b42811015610c03576040517f08c379a0000000000000000000000000000000000000000000000000000000008152600401610bfa906120ea565b60405180910390fd5b806004819055506000600380549050905060005b81811015610cf95760006002600060038481548110610c5f577f4e487b7100000000000000000000000000000000000000000000000000000000600052603260045260246000fd5b9060005260206000200160009054906101000a900473ffffffffffffffffffffffffffffffffffffffff1673ffffffffffffffffffffffffffffffffffffffff1673ffffffffffffffffffffffffffffffffffffffff1681526020019081526020016000209050610cdd81600101548561137b90919063ffffffff16565b8160070181905550508080610cf19061244b565b915050610c17565b505050565b610d066113bd565b73ffffffffffffffffffffffffffffffffffffffff16610d24610b1b565b73ffffffffffffffffffffffffffffffffffffffff1614610d7a576040517f08c379a0000000000000000000000000000000000000000000000000000000008152600401610d719061210a565b60405180910390fd5b600073ffffffffffffffffffffffffffffffffffffffff168673ffffffffffffffffffffffffffffffffffffffff161415610dea576040517f08c379a0000000000000000000000000000000000000000000000000000000008152600401610de1906121ca565b60405180910390fd5b60008511610e2d576040517f08c379a0000000000000000000000000000000000000000000000000000000008152600401610e24906121aa565b60405180910390fd5b600160009054906101000a900473ffffffffffffffffffffffffffffffffffffffff1673ffffffffffffffffffffffffffffffffffffffff166318160ddd6040518163ffffffff1660e01b815260040160206040518083038186803b158015610e9557600080fd5b505afa158015610ea9573d6000803e3d6000fd5b505050506040513d601f19601f82011682018060405250810190610ecd91906119fa565b610ee28660055461137b90919063ffffffff16565b1115610f23576040517f08c379a0000000000000000000000000000000000000000000000000000000008152600401610f1a906120aa565b60405180910390fd5b6000600260008873ffffffffffffffffffffffffffffffffffffffff1673ffffffffffffffffffffffffffffffffffffffff1681526020019081526020016000206003015414610fa8576040517f08c379a0000000000000000000000000000000000000000000000000000000008152600401610f9f9061206a565b60405180910390fd5b6000610fbd838761136590919063ffffffff16565b90506000610fd68660045461137b90919063ffffffff16565b90506040518061014001604052808973ffffffffffffffffffffffffffffffffffffffff1681526020018781526020018681526020018881526020018381526020018581526020018581526020018281526020018481526020016000815250600260008a73ffffffffffffffffffffffffffffffffffffffff1673ffffffffffffffffffffffffffffffffffffffff16815260200190815260200160002060008201518160000160006101000a81548173ffffffffffffffffffffffffffffffffffffffff021916908373ffffffffffffffffffffffffffffffffffffffff1602179055506020820151816001015560408201518160020155606082015181600301556080820151816004015560a0820151816005015560c0820151816006015560e08201518160070155610100820151816008015561012082015181600901559050506003889080600181540180825580915050600190039060005260206000200160009091909190916101000a81548173ffffffffffffffffffffffffffffffffffffffff021916908373ffffffffffffffffffffffffffffffffffffffff1602179055506111928760055461137b90919063ffffffff16565b600581905550600084111561123d578773ffffffffffffffffffffffffffffffffffffffff167fb21fb52d5749b80f3182f8c6992236b5e5576681880914484d7f4c9b062e619e886040516111e791906121ea565b60405180910390a261123c8885600160009054906101000a900473ffffffffffffffffffffffffffffffffffffffff1673ffffffffffffffffffffffffffffffffffffffff166115af9092919063ffffffff16565b5b5050505050505050565b61124f6113bd565b73ffffffffffffffffffffffffffffffffffffffff1661126d610b1b565b73ffffffffffffffffffffffffffffffffffffffff16146112c3576040517f08c379a00000000000000000000000000000000000000000000000000000000081526004016112ba9061210a565b60405180910390fd5b600073ffffffffffffffffffffffffffffffffffffffff168173ffffffffffffffffffffffffffffffffffffffff161415611333576040517f08c379a000000000000000000000000000000000000000000000000000000000815260040161132a9061208a565b60405180910390fd5b61133c816114eb565b50565b600160009054906101000a900473ffffffffffffffffffffffffffffffffffffffff1681565b600081836113739190612378565b905092915050565b600081836113899190612297565b905092915050565b6000818361139f919061231e565b905092915050565b600081836113b591906122ed565b905092915050565b600033905090565b600080600260008673ffffffffffffffffffffffffffffffffffffffff1673ffffffffffffffffffffffffffffffffffffffff16815260200190815260200160002090508242101561141b5760009150506114e4565b61143284826005015461137b90919063ffffffff16565b81600501819055508281600901819055508473ffffffffffffffffffffffffffffffffffffffff167fb21fb52d5749b80f3182f8c6992236b5e5576681880914484d7f4c9b062e619e8560405161148991906121ea565b60405180910390a26114de8585600160009054906101000a900473ffffffffffffffffffffffffffffffffffffffff1673ffffffffffffffffffffffffffffffffffffffff166115af9092919063ffffffff16565b60019150505b9392505050565b60008060009054906101000a900473ffffffffffffffffffffffffffffffffffffffff169050816000806101000a81548173ffffffffffffffffffffffffffffffffffffffff021916908373ffffffffffffffffffffffffffffffffffffffff1602179055508173ffffffffffffffffffffffffffffffffffffffff168173ffffffffffffffffffffffffffffffffffffffff167f8be0079c531659141344cd1fd0a4f28419497f9722a3daafe3b4186f6b6457e060405160405180910390a35050565b6116308363a9059cbb60e01b84846040516024016115ce929190611f68565b604051602081830303815290604052907bffffffffffffffffffffffffffffffffffffffffffffffffffffffff19166020820180517bffffffffffffffffffffffffffffffffffffffffffffffffffffffff8381831617835250505050611635565b505050565b6000611697826040518060400160405280602081526020017f5361666545524332303a206c6f772d6c6576656c2063616c6c206661696c65648152508573ffffffffffffffffffffffffffffffffffffffff166116fc9092919063ffffffff16565b90506000815111156116f757808060200190518101906116b791906119a8565b6116f6576040517f08c379a00000000000000000000000000000000000000000000000000000000081526004016116ed9061218a565b60405180910390fd5b5b505050565b606061170b8484600085611714565b90509392505050565b606082471015611759576040517f08c379a0000000000000000000000000000000000000000000000000000000008152600401611750906120ca565b60405180910390fd5b61176285611828565b6117a1576040517f08c379a00000000000000000000000000000000000000000000000000000000081526004016117989061212a565b60405180910390fd5b6000808673ffffffffffffffffffffffffffffffffffffffff1685876040516117ca9190611f36565b60006040518083038185875af1925050503d8060008114611807576040519150601f19603f3d011682016040523d82523d6000602084013e61180c565b606091505b509150915061181c82828661183b565b92505050949350505050565b600080823b905060008111915050919050565b6060831561184b5782905061189b565b60008351111561185e5782518084602001fd5b816040517f08c379a00000000000000000000000000000000000000000000000000000000081526004016118929190612048565b60405180910390fd5b9392505050565b6000813590506118b181612503565b92915050565b6000815190506118c68161251a565b92915050565b6000813590506118db81612531565b92915050565b6000815190506118f081612531565b92915050565b60006020828403121561190857600080fd5b6000611916848285016118a2565b91505092915050565b60008060008060008060c0878903121561193857600080fd5b600061194689828a016118a2565b965050602061195789828a016118cc565b955050604061196889828a016118cc565b945050606061197989828a016118cc565b935050608061198a89828a016118cc565b92505060a061199b89828a016118cc565b9150509295509295509295565b6000602082840312156119ba57600080fd5b60006119c8848285016118b7565b91505092915050565b6000602082840312156119e357600080fd5b60006119f1848285016118cc565b91505092915050565b600060208284031215611a0c57600080fd5b6000611a1a848285016118e1565b91505092915050565b611a2c816123ac565b82525050565b6000611a3d82612265565b611a47818561227b565b9350611a57818560208601612418565b80840191505092915050565b611a6c816123f4565b82525050565b6000611a7d82612270565b611a878185612286565b9350611a97818560208601612418565b611aa0816124f2565b840191505092915050565b6000611ab8603583612286565b91507f5468652062656e65666963696172792068617320616464656420746f2074686560008301527f2076657374696e6720706f6f6c20616c726561647900000000000000000000006020830152604082019050919050565b6000611b1e602683612286565b91507f4f776e61626c653a206e6577206f776e657220697320746865207a65726f206160008301527f64647265737300000000000000000000000000000000000000000000000000006020830152604082019050919050565b6000611b84604683612286565b91507f46756c6c20746f6b656e2076657374696e6720746f206f746865722062656e6560008301527f6669636961726965732e2043616e206e6f7420616464206e65772062656e656660208301527f69636961727900000000000000000000000000000000000000000000000000006040830152606082019050919050565b6000611c10602683612286565b91507f416464726573733a20696e73756666696369656e742062616c616e636520666f60008301527f722063616c6c00000000000000000000000000000000000000000000000000006020830152604082019050919050565b6000611c76602483612286565b91507f546f6b656e206c697374696e67206d75737420626520696e206675747572652060008301527f64617465000000000000000000000000000000000000000000000000000000006020830152604082019050919050565b6000611cdc602083612286565b91507f4f776e61626c653a2063616c6c6572206973206e6f7420746865206f776e65726000830152602082019050919050565b6000611d1c601d83612286565b91507f416464726573733a2063616c6c20746f206e6f6e2d636f6e74726163740000006000830152602082019050919050565b6000611d5c601a83612286565b91507f596f752063616e6e6f742072656c6561736520746f6b656e73210000000000006000830152602082019050919050565b6000611d9c602983612286565b91507f5468652062656e6566696369617279277320616464726573732063616e6e6f7460008301527f20626520666f756e6400000000000000000000000000000000000000000000006020830152604082019050919050565b6000611e02602a83612286565b91507f5361666545524332303a204552433230206f7065726174696f6e20646964206e60008301527f6f742073756363656564000000000000000000000000000000000000000000006020830152604082019050919050565b6000611e68602683612286565b91507f53686172657320616d6f756e742068617320746f20626520677265617465722060008301527f7468616e203000000000000000000000000000000000000000000000000000006020830152604082019050919050565b6000611ece602583612286565b91507f5468652062656e6566696369617279277320616464726573732063616e6e6f7460008301527f20626520300000000000000000000000000000000000000000000000000000006020830152604082019050919050565b611f30816123ea565b82525050565b6000611f428284611a32565b915081905092915050565b6000602082019050611f626000830184611a23565b92915050565b6000604082019050611f7d6000830185611a23565b611f8a6020830184611f27565b9392505050565b600061014082019050611fa7600083018d611a23565b611fb4602083018c611f27565b611fc1604083018b611f27565b611fce606083018a611f27565b611fdb6080830189611f27565b611fe860a0830188611f27565b611ff560c0830187611f27565b61200260e0830186611f27565b612010610100830185611f27565b61201e610120830184611f27565b9b9a5050505050505050505050565b60006020820190506120426000830184611a63565b92915050565b600060208201905081810360008301526120628184611a72565b905092915050565b6000602082019050818103600083015261208381611aab565b9050919050565b600060208201905081810360008301526120a381611b11565b9050919050565b600060208201905081810360008301526120c381611b77565b9050919050565b600060208201905081810360008301526120e381611c03565b9050919050565b6000602082019050818103600083015261210381611c69565b9050919050565b6000602082019050818103600083015261212381611ccf565b9050919050565b6000602082019050818103600083015261214381611d0f565b9050919050565b6000602082019050818103600083015261216381611d4f565b9050919050565b6000602082019050818103600083015261218381611d8f565b9050919050565b600060208201905081810360008301526121a381611df5565b9050919050565b600060208201905081810360008301526121c381611e5b565b9050919050565b600060208201905081810360008301526121e381611ec1565b9050919050565b60006020820190506121ff6000830184611f27565b92915050565b600060408201905061221a6000830185611f27565b6122276020830184611f27565b9392505050565b60006060820190506122436000830186611f27565b6122506020830185611f27565b61225d6040830184611f27565b949350505050565b600081519050919050565b600081519050919050565b600081905092915050565b600082825260208201905092915050565b60006122a2826123ea565b91506122ad836123ea565b9250827fffffffffffffffffffffffffffffffffffffffffffffffffffffffffffffffff038211156122e2576122e1612494565b5b828201905092915050565b60006122f8826123ea565b9150612303836123ea565b925082612313576123126124c3565b5b828204905092915050565b6000612329826123ea565b9150612334836123ea565b9250817fffffffffffffffffffffffffffffffffffffffffffffffffffffffffffffffff048311821515161561236d5761236c612494565b5b828202905092915050565b6000612383826123ea565b915061238e836123ea565b9250828210156123a1576123a0612494565b5b828203905092915050565b60006123b7826123ca565b9050919050565b60008115159050919050565b600073ffffffffffffffffffffffffffffffffffffffff82169050919050565b6000819050919050565b60006123ff82612406565b9050919050565b6000612411826123ca565b9050919050565b60005b8381101561243657808201518184015260208101905061241b565b83811115612445576000848401525b50505050565b6000612456826123ea565b91507fffffffffffffffffffffffffffffffffffffffffffffffffffffffffffffffff82141561248957612488612494565b5b600182019050919050565b7f4e487b7100000000000000000000000000000000000000000000000000000000600052601160045260246000fd5b7f4e487b7100000000000000000000000000000000000000000000000000000000600052601260045260246000fd5b6000601f19601f8301169050919050565b61250c816123ac565b811461251757600080fd5b50565b612523816123be565b811461252e57600080fd5b50565b61253a816123ea565b811461254557600080fd5b5056fea26469706673582212201bfae5f9beb1490f803162c646a93dd9deb39c8a6f822b8eba1f46ba3bda635364736f6c63430008000033",
  "immutableReferences": {},
  "source": "// SPDX-License-Identifier: MIT\r\npragma solidity 0.8.0;\r\n\r\nimport \"@openzeppelin/contracts/token/ERC20/utils/SafeERC20.sol\";\r\nimport \"@openzeppelin/contracts/utils/math/SafeMath.sol\";\r\nimport \"@openzeppelin/contracts/access/Ownable.sol\";\r\nimport \"@openzeppelin/contracts/token/ERC20/IERC20.sol\";\r\n\r\ninterface IStandardBEP20 is IERC20 {\r\n    /**\r\n     * @dev Returns the cap on the token's total supply.\r\n     */\r\n    function cap() external view returns (uint256);\r\n\r\n    /**\r\n     * @dev Returns the cap on the token's total supply.\r\n     */\r\n    function mint(address to, uint256 amount) external;\r\n}\r\n\r\ncontract TokenVesting is Ownable {\r\n    // Contract libs\r\n    using SafeMath for uint256;\r\n    using SafeERC20 for IStandardBEP20;\r\n\r\n    // Contract events\r\n    event Released(address indexed beneficiary, uint256 amount);\r\n\r\n    // Vesting information struct\r\n    struct VestingBeneficiary {\r\n        address beneficiary;\r\n        uint256 lockDuration;\r\n        uint256 duration;\r\n        uint256 amount;\r\n        uint256 leftOverVestingAmount;\r\n        uint256 released;\r\n        uint256 upfrontAmount;\r\n        uint256 startedAt;\r\n        uint256 interval;\r\n        uint256 lastReleasedAt;\r\n    }\r\n\r\n    IStandardBEP20 public token;\r\n    // Vesting beneficiary list\r\n    mapping(address => VestingBeneficiary) public beneficiaries;\r\n    address[] public beneficiaryAddresses;\r\n    // Token deployed date\r\n    uint256 public tokenListingDate;\r\n    uint256 public tokenVestingCap;\r\n\r\n    constructor(address _token, uint256 _tokenListingDate) {\r\n        token = IStandardBEP20(_token);\r\n        if (_tokenListingDate > 0) {\r\n            tokenListingDate = _tokenListingDate;\r\n        }\r\n    }\r\n\r\n    // only owner or added beneficiaries can release the vesting amount\r\n    modifier onlyBeneficiaries() {\r\n        require(\r\n            owner() == _msgSender() || beneficiaries[_msgSender()].amount > 0,\r\n            \"You cannot release tokens!\"\r\n        );\r\n        _;\r\n    }\r\n \r\n    /**\r\n     * @dev Set first day token listing on exchange for vesting process\r\n     */\r\n    function setTokenListingDate(uint256 _tokenListingDate) external onlyOwner {\r\n        require(\r\n            _tokenListingDate >= block.timestamp,\r\n            \"Token listing must be in future date\"\r\n        );\r\n\r\n        tokenListingDate = _tokenListingDate;\r\n\r\n        uint256 beneficiaryCount = beneficiaryAddresses.length;\r\n        for (uint256 i = 0; i < beneficiaryCount; i++) {\r\n            VestingBeneficiary storage info = beneficiaries[\r\n                beneficiaryAddresses[i]\r\n            ];\r\n\r\n            info.startedAt = _tokenListingDate.add(info.lockDuration);\r\n        }\r\n    }\r\n\r\n    /**\r\n     * @dev Add new beneficiary to vesting contract with some conditions.\r\n     */\r\n    function addBeneficiary(\r\n        address _beneficiary,\r\n        uint256 _amount,\r\n        uint256 _lockDuration,\r\n        uint256 _duration,\r\n        uint256 _upfrontAmount,\r\n        uint256 _interval\r\n    ) external onlyOwner {\r\n        require(\r\n            _beneficiary != address(0),\r\n            \"The beneficiary's address cannot be 0\"\r\n        );\r\n\r\n        require(_amount > 0, \"Shares amount has to be greater than 0\");\r\n        require(\r\n            tokenVestingCap.add(_amount) <= token.totalSupply(),\r\n            \"Full token vesting to other beneficiaries. Can not add new beneficiary\"\r\n        );\r\n        require(\r\n            beneficiaries[_beneficiary].amount == 0,\r\n            \"The beneficiary has added to the vesting pool already\"\r\n        );\r\n\r\n        // Add new vesting beneficiary\r\n        uint256 _leftOverVestingAmount = _amount.sub(_upfrontAmount);\r\n        uint256 vestingStartedAt = tokenListingDate.add(_lockDuration);\r\n        beneficiaries[_beneficiary] = VestingBeneficiary(\r\n            _beneficiary,\r\n            _lockDuration,\r\n            _duration,\r\n            _amount,\r\n            _leftOverVestingAmount,\r\n            _upfrontAmount,\r\n            _upfrontAmount,\r\n            vestingStartedAt,\r\n            _interval,\r\n            0\r\n        );\r\n\r\n        beneficiaryAddresses.push(_beneficiary);\r\n        tokenVestingCap = tokenVestingCap.add(_amount);\r\n\r\n        // Transfer immediately if any upfront amount\r\n        if (_upfrontAmount > 0) {\r\n            emit Released(_beneficiary, _amount);\r\n            token.safeTransfer(_beneficiary, _upfrontAmount);\r\n        }\r\n    }\r\n\r\n    /**\r\n     * @dev Get new vested amount of beneficiary base on vesting schedule of this beneficiary.\r\n     */\r\n    function releasableAmount(address _beneficiary)\r\n        public\r\n        view\r\n        returns (\r\n            uint256,\r\n            uint256,\r\n            uint256\r\n        )\r\n    {\r\n        VestingBeneficiary memory info = beneficiaries[_beneficiary];\r\n        if (info.amount == 0) {\r\n            return (0, 0, block.timestamp);\r\n        }\r\n\r\n        (uint256 _vestedAmount, uint256 _lastIntervalDate) = vestedAmount(\r\n            _beneficiary\r\n        );\r\n\r\n        return (\r\n            _vestedAmount,\r\n            _vestedAmount.sub(info.released),\r\n            _lastIntervalDate\r\n        );\r\n    }\r\n\r\n    /**\r\n     * @dev Get total vested amount of beneficiary base on vesting schedule of this beneficiary.\r\n     */\r\n    function vestedAmount(address _beneficiary)\r\n        public\r\n        view\r\n        returns (uint256, uint256)\r\n    {\r\n        VestingBeneficiary memory info = beneficiaries[_beneficiary];\r\n        require(info.amount > 0, \"The beneficiary's address cannot be found\");\r\n        // Listing date is not set\r\n        if (info.startedAt == 0) {\r\n            return (info.released, info.lastReleasedAt);\r\n        }\r\n\r\n        // No vesting (All amount unlock at the TGE)\r\n        if (info.duration == 0) {\r\n            return (info.amount, info.startedAt);\r\n        }\r\n\r\n        // Vesting has not started yet\r\n        if (block.timestamp < info.startedAt) {\r\n            return (info.released, info.lastReleasedAt);\r\n        }\r\n\r\n        // Vesting is done\r\n        if (block.timestamp >= info.startedAt.add(info.duration)) {\r\n            return (info.amount, info.startedAt.add(info.duration));\r\n        }\r\n\r\n        // It's too soon to next release\r\n        if (\r\n            info.lastReleasedAt > 0 &&\r\n            block.timestamp - info.interval < info.lastReleasedAt\r\n        ) {\r\n            return (info.released, info.lastReleasedAt);\r\n        }\r\n\r\n        // Vesting is interval counter\r\n        uint256 totalVestedAmount = info.released;\r\n        uint256 lastIntervalDate = info.lastReleasedAt > 0\r\n            ? info.lastReleasedAt\r\n            : info.startedAt;\r\n\r\n        uint256 multiplyIntervals;\r\n        while (block.timestamp >= lastIntervalDate.add(info.interval)) {\r\n            multiplyIntervals = multiplyIntervals.add(1);\r\n            lastIntervalDate = lastIntervalDate.add(info.interval);\r\n        }\r\n\r\n        if (multiplyIntervals > 0) {\r\n            uint256 newVestedAmount = info\r\n                .leftOverVestingAmount\r\n                .mul(multiplyIntervals.mul(info.interval))\r\n                .div(info.duration);\r\n\r\n            totalVestedAmount = totalVestedAmount.add(newVestedAmount);\r\n        }\r\n\r\n        return (totalVestedAmount, lastIntervalDate);\r\n    }\r\n\r\n    /**\r\n     * @dev Release vested tokens to a specified beneficiary.\r\n     */\r\n    function releaseTo(\r\n        address _beneficiary,\r\n        uint256 _amount,\r\n        uint256 _lastIntervalDate\r\n    ) internal returns (bool) {\r\n        VestingBeneficiary storage info = beneficiaries[_beneficiary];\r\n        if (block.timestamp < _lastIntervalDate) {\r\n            return false;\r\n        }\r\n        // Update beneficiary information\r\n        info.released = info.released.add(_amount);\r\n        info.lastReleasedAt = _lastIntervalDate;\r\n\r\n        // Emit event to of new release\r\n        emit Released(_beneficiary, _amount);\r\n        // Transfer new released amount to vesting beneficiary\r\n        token.safeTransfer(_beneficiary, _amount);\r\n        return true;\r\n    }\r\n\r\n    /**\r\n     * @dev Release vested tokens to a all beneficiaries.\r\n     */\r\n    function releaseBeneficiaryTokens() external onlyOwner {\r\n        // Get current vesting beneficiaries\r\n        uint256 beneficiariesCount = beneficiaryAddresses.length;\r\n        for (uint256 i = 0; i < beneficiariesCount; i++) {\r\n            // Calculate the releasable amount\r\n            (\r\n                ,\r\n                uint256 _newReleaseAmount,\r\n                uint256 _lastIntervalDate\r\n            ) = releasableAmount(beneficiaryAddresses[i]);\r\n\r\n            // Release new vested token to the beneficiary\r\n            if (_newReleaseAmount > 0) {\r\n                releaseTo(\r\n                    beneficiaryAddresses[i],\r\n                    _newReleaseAmount,\r\n                    _lastIntervalDate\r\n                );\r\n            }\r\n        }\r\n    }\r\n\r\n    /**\r\n     * @dev Release vested tokens to current beneficiary.\r\n     */\r\n    function releaseMyTokens() external onlyBeneficiaries {\r\n        // Calculate the releasable amount\r\n        (\r\n            ,\r\n            uint256 _newReleaseAmount,\r\n            uint256 _lastIntervalDate\r\n        ) = releasableAmount(_msgSender());\r\n\r\n        // Release new vested token to the beneficiary\r\n        if (_newReleaseAmount > 0) {\r\n            releaseTo(_msgSender(), _newReleaseAmount, _lastIntervalDate);\r\n        }\r\n    }\r\n}",
  "sourcePath": "C:\\MyProject\\SmartContract\\HOL\\contracts\\TokenVesting.sol",
  "compiler": {
    "name": "solc",
    "version": "0.8.0+commit.c7dfd78e.Emscripten.clang"
  },
  "schemaVersion": "3.4.3",
  "updatedAt": "2021-12-21T11:44:25.523Z",
  "devdoc": {
    "kind": "dev",
    "methods": {
      "addBeneficiary(address,uint256,uint256,uint256,uint256,uint256)": {
        "details": "Add new beneficiary to vesting contract with some conditions."
      },
      "owner()": {
        "details": "Returns the address of the current owner."
      },
      "releasableAmount(address)": {
        "details": "Get new vested amount of beneficiary base on vesting schedule of this beneficiary."
      },
      "releaseBeneficiaryTokens()": {
        "details": "Release vested tokens to a all beneficiaries."
      },
      "releaseMyTokens()": {
        "details": "Release vested tokens to current beneficiary."
      },
      "renounceOwnership()": {
        "details": "Leaves the contract without owner. It will not be possible to call `onlyOwner` functions anymore. Can only be called by the current owner. NOTE: Renouncing ownership will leave the contract without an owner, thereby removing any functionality that is only available to the owner."
      },
      "setTokenListingDate(uint256)": {
        "details": "Set first day token listing on exchange for vesting process"
      },
      "transferOwnership(address)": {
        "details": "Transfers ownership of the contract to a new account (`newOwner`). Can only be called by the current owner."
      },
      "vestedAmount(address)": {
        "details": "Get total vested amount of beneficiary base on vesting schedule of this beneficiary."
      }
    },
    "version": 1
  },
  "userdoc": {
    "kind": "user",
    "methods": {},
    "version": 1
  }
}